{
  "contractName": "SolnSquareVerifier",
  "abi": [
    {
      "inputs": [
        {
          "internalType": "address",
          "name": "contractVerifierAddress",
          "type": "address"
        }
      ],
      "payable": false,
      "stateMutability": "nonpayable",
      "type": "constructor"
    },
    {
      "anonymous": false,
      "inputs": [
        {
          "indexed": true,
          "internalType": "address",
          "name": "owner",
          "type": "address"
        },
        {
          "indexed": true,
          "internalType": "address",
          "name": "approved",
          "type": "address"
        },
        {
          "indexed": true,
          "internalType": "uint256",
          "name": "tokenId",
          "type": "uint256"
        }
      ],
      "name": "Approval",
      "type": "event"
    },
    {
      "anonymous": false,
      "inputs": [
        {
          "indexed": true,
          "internalType": "address",
          "name": "owner",
          "type": "address"
        },
        {
          "indexed": true,
          "internalType": "address",
          "name": "operator",
          "type": "address"
        },
        {
          "indexed": false,
          "internalType": "bool",
          "name": "approved",
          "type": "bool"
        }
      ],
      "name": "ApprovalForAll",
      "type": "event"
    },
    {
      "anonymous": false,
      "inputs": [
        {
          "indexed": false,
          "internalType": "address",
          "name": "theNewOwner",
          "type": "address"
        }
      ],
      "name": "OwnershipWasTransfered",
      "type": "event"
    },
    {
      "anonymous": false,
      "inputs": [
        {
          "indexed": false,
          "internalType": "address",
          "name": "account",
          "type": "address"
        }
      ],
      "name": "Paused",
      "type": "event"
    },
    {
      "anonymous": false,
      "inputs": [
        {
          "indexed": true,
          "internalType": "address",
          "name": "from",
          "type": "address"
        },
        {
          "indexed": true,
          "internalType": "address",
          "name": "to",
          "type": "address"
        },
        {
          "indexed": true,
          "internalType": "uint256",
          "name": "tokenId",
          "type": "uint256"
        }
      ],
      "name": "Transfer",
      "type": "event"
    },
    {
      "anonymous": false,
      "inputs": [
        {
          "indexed": false,
          "internalType": "address",
          "name": "account",
          "type": "address"
        }
      ],
      "name": "Unpaused",
      "type": "event"
    },
    {
      "anonymous": false,
      "inputs": [
        {
          "indexed": false,
          "internalType": "address",
          "name": "solution",
          "type": "address"
        }
      ],
      "name": "solutionWasAdded",
      "type": "event"
    },
    {
      "constant": false,
      "inputs": [
        {
          "internalType": "bytes32",
          "name": "_myid",
          "type": "bytes32"
        },
        {
          "internalType": "string",
          "name": "_result",
          "type": "string"
        }
      ],
      "name": "__callback",
      "outputs": [],
      "payable": false,
      "stateMutability": "nonpayable",
      "type": "function"
    },
    {
      "constant": false,
      "inputs": [
        {
          "internalType": "bytes32",
          "name": "_myid",
          "type": "bytes32"
        },
        {
          "internalType": "string",
          "name": "_result",
          "type": "string"
        },
        {
          "internalType": "bytes",
          "name": "_proof",
          "type": "bytes"
        }
      ],
      "name": "__callback",
      "outputs": [],
      "payable": false,
      "stateMutability": "nonpayable",
      "type": "function"
    },
    {
      "constant": false,
      "inputs": [
        {
          "internalType": "address",
          "name": "to",
          "type": "address"
        },
        {
          "internalType": "uint256",
          "name": "tokenId",
          "type": "uint256"
        }
      ],
      "name": "approve",
      "outputs": [],
      "payable": false,
      "stateMutability": "nonpayable",
      "type": "function"
    },
    {
      "constant": true,
      "inputs": [
        {
          "internalType": "address",
          "name": "owner",
          "type": "address"
        }
      ],
      "name": "balanceOf",
      "outputs": [
        {
          "internalType": "uint256",
          "name": "",
          "type": "uint256"
        }
      ],
      "payable": false,
      "stateMutability": "view",
      "type": "function"
    },
    {
      "constant": false,
      "inputs": [],
      "name": "baseTokenURI",
      "outputs": [
        {
          "internalType": "string",
          "name": "",
          "type": "string"
        }
      ],
      "payable": false,
      "stateMutability": "nonpayable",
      "type": "function"
    },
    {
      "constant": true,
      "inputs": [
        {
          "internalType": "uint256",
          "name": "tokenId",
          "type": "uint256"
        }
      ],
      "name": "getApproved",
      "outputs": [
        {
          "internalType": "address",
          "name": "",
          "type": "address"
        }
      ],
      "payable": false,
      "stateMutability": "view",
      "type": "function"
    },
    {
      "constant": false,
      "inputs": [],
      "name": "getBaseTokenURI",
      "outputs": [
        {
          "internalType": "string",
          "name": "",
          "type": "string"
        }
      ],
      "payable": false,
      "stateMutability": "nonpayable",
      "type": "function"
    },
    {
      "constant": false,
      "inputs": [],
      "name": "getOwner",
      "outputs": [
        {
          "internalType": "address",
          "name": "",
          "type": "address"
        }
      ],
      "payable": false,
      "stateMutability": "nonpayable",
      "type": "function"
    },
    {
      "constant": true,
      "inputs": [
        {
          "internalType": "address",
          "name": "owner",
          "type": "address"
        },
        {
          "internalType": "address",
          "name": "operator",
          "type": "address"
        }
      ],
      "name": "isApprovedForAll",
      "outputs": [
        {
          "internalType": "bool",
          "name": "",
          "type": "bool"
        }
      ],
      "payable": false,
      "stateMutability": "view",
      "type": "function"
    },
    {
      "constant": false,
      "inputs": [
        {
          "internalType": "address",
          "name": "to",
          "type": "address"
        },
        {
          "internalType": "uint256",
          "name": "tokenId",
          "type": "uint256"
        },
        {
          "internalType": "string",
          "name": "tokenURI",
          "type": "string"
        }
      ],
      "name": "mint",
      "outputs": [
        {
          "internalType": "bool",
          "name": "",
          "type": "bool"
        }
      ],
      "payable": false,
      "stateMutability": "nonpayable",
      "type": "function"
    },
    {
      "constant": false,
      "inputs": [],
      "name": "name",
      "outputs": [
        {
          "internalType": "string",
          "name": "",
          "type": "string"
        }
      ],
      "payable": false,
      "stateMutability": "nonpayable",
      "type": "function"
    },
    {
      "constant": true,
      "inputs": [
        {
          "internalType": "uint256",
          "name": "tokenId",
          "type": "uint256"
        }
      ],
      "name": "ownerOf",
      "outputs": [
        {
          "internalType": "address",
          "name": "",
          "type": "address"
        }
      ],
      "payable": false,
      "stateMutability": "view",
      "type": "function"
    },
    {
      "constant": false,
      "inputs": [
        {
          "internalType": "bool",
          "name": "pauseValue",
          "type": "bool"
        }
      ],
      "name": "pausedSetter",
      "outputs": [],
      "payable": false,
      "stateMutability": "nonpayable",
      "type": "function"
    },
    {
      "constant": false,
      "inputs": [
        {
          "internalType": "address",
          "name": "from",
          "type": "address"
        },
        {
          "internalType": "address",
          "name": "to",
          "type": "address"
        },
        {
          "internalType": "uint256",
          "name": "tokenId",
          "type": "uint256"
        }
      ],
      "name": "safeTransferFrom",
      "outputs": [],
      "payable": false,
      "stateMutability": "nonpayable",
      "type": "function"
    },
    {
      "constant": false,
      "inputs": [
        {
          "internalType": "address",
          "name": "from",
          "type": "address"
        },
        {
          "internalType": "address",
          "name": "to",
          "type": "address"
        },
        {
          "internalType": "uint256",
          "name": "tokenId",
          "type": "uint256"
        },
        {
          "internalType": "bytes",
          "name": "_data",
          "type": "bytes"
        }
      ],
      "name": "safeTransferFrom",
      "outputs": [],
      "payable": false,
      "stateMutability": "nonpayable",
      "type": "function"
    },
    {
      "constant": false,
      "inputs": [
        {
          "internalType": "address",
          "name": "to",
          "type": "address"
        },
        {
          "internalType": "bool",
          "name": "approved",
          "type": "bool"
        }
      ],
      "name": "setApprovalForAll",
      "outputs": [],
      "payable": false,
      "stateMutability": "nonpayable",
      "type": "function"
    },
    {
      "constant": true,
      "inputs": [
        {
          "internalType": "bytes4",
          "name": "interfaceId",
          "type": "bytes4"
        }
      ],
      "name": "supportsInterface",
      "outputs": [
        {
          "internalType": "bool",
          "name": "",
          "type": "bool"
        }
      ],
      "payable": false,
      "stateMutability": "view",
      "type": "function"
    },
    {
      "constant": false,
      "inputs": [],
      "name": "symbol",
      "outputs": [
        {
          "internalType": "string",
          "name": "",
          "type": "string"
        }
      ],
      "payable": false,
      "stateMutability": "nonpayable",
      "type": "function"
    },
    {
      "constant": true,
      "inputs": [
        {
          "internalType": "uint256",
          "name": "index",
          "type": "uint256"
        }
      ],
      "name": "tokenByIndex",
      "outputs": [
        {
          "internalType": "uint256",
          "name": "",
          "type": "uint256"
        }
      ],
      "payable": false,
      "stateMutability": "view",
      "type": "function"
    },
    {
      "constant": true,
      "inputs": [
        {
          "internalType": "address",
          "name": "owner",
          "type": "address"
        },
        {
          "internalType": "uint256",
          "name": "index",
          "type": "uint256"
        }
      ],
      "name": "tokenOfOwnerByIndex",
      "outputs": [
        {
          "internalType": "uint256",
          "name": "",
          "type": "uint256"
        }
      ],
      "payable": false,
      "stateMutability": "view",
      "type": "function"
    },
    {
      "constant": true,
      "inputs": [
        {
          "internalType": "uint256",
          "name": "tokenId",
          "type": "uint256"
        }
      ],
      "name": "tokenURI",
      "outputs": [
        {
          "internalType": "string",
          "name": "",
          "type": "string"
        }
      ],
      "payable": false,
      "stateMutability": "view",
      "type": "function"
    },
    {
      "constant": true,
      "inputs": [],
      "name": "totalSupply",
      "outputs": [
        {
          "internalType": "uint256",
          "name": "",
          "type": "uint256"
        }
      ],
      "payable": false,
      "stateMutability": "view",
      "type": "function"
    },
    {
      "constant": false,
      "inputs": [
        {
          "internalType": "address",
          "name": "from",
          "type": "address"
        },
        {
          "internalType": "address",
          "name": "to",
          "type": "address"
        },
        {
          "internalType": "uint256",
          "name": "tokenId",
          "type": "uint256"
        }
      ],
      "name": "transferFrom",
      "outputs": [],
      "payable": false,
      "stateMutability": "nonpayable",
      "type": "function"
    },
    {
      "constant": false,
      "inputs": [
        {
          "internalType": "address",
          "name": "newOwner",
          "type": "address"
        }
      ],
      "name": "transferOwnership",
      "outputs": [],
      "payable": false,
      "stateMutability": "nonpayable",
      "type": "function"
    },
    {
      "constant": false,
      "inputs": [
        {
          "internalType": "address",
          "name": "Address",
          "type": "address"
        },
        {
          "internalType": "uint256",
          "name": "Id",
          "type": "uint256"
        },
        {
          "internalType": "bytes32",
          "name": "solutionHash",
          "type": "bytes32"
        }
      ],
      "name": "addSolution",
      "outputs": [],
      "payable": false,
      "stateMutability": "nonpayable",
      "type": "function"
    },
    {
      "constant": false,
      "inputs": [
        {
          "internalType": "address",
          "name": "Address",
          "type": "address"
        },
        {
          "internalType": "uint256",
          "name": "Id",
          "type": "uint256"
        },
        {
          "internalType": "uint256[2]",
          "name": "a",
          "type": "uint256[2]"
        },
        {
          "internalType": "uint256[2]",
          "name": "a_p",
          "type": "uint256[2]"
        },
        {
          "internalType": "uint256[2][2]",
          "name": "b",
          "type": "uint256[2][2]"
        },
        {
          "internalType": "uint256[2]",
          "name": "b_p",
          "type": "uint256[2]"
        },
        {
          "internalType": "uint256[2]",
          "name": "c",
          "type": "uint256[2]"
        },
        {
          "internalType": "uint256[2]",
          "name": "c_p",
          "type": "uint256[2]"
        },
        {
          "internalType": "uint256[2]",
          "name": "h",
          "type": "uint256[2]"
        },
        {
          "internalType": "uint256[2]",
          "name": "k",
          "type": "uint256[2]"
        },
        {
          "internalType": "uint256[2]",
          "name": "input",
          "type": "uint256[2]"
        }
      ],
      "name": "mintNewNFT",
      "outputs": [
        {
          "internalType": "bool",
          "name": "",
          "type": "bool"
        }
      ],
      "payable": false,
      "stateMutability": "nonpayable",
      "type": "function"
    }
  ],
  "bytecode": "0x60806040523480156200001157600080fd5b5060405162003b4638038062003b46833981810160405260208110156200003757600080fd5b81019080805190602001909291905050506040518060400160405280600e81526020017f6d657368616c436f6e74726163740000000000000000000000000000000000008152506040518060400160405280600281526020017f4d430000000000000000000000000000000000000000000000000000000000008152506040518060400160405280602081526020017f68747470733a2f2f756461636974792e6d657368616c2e696f2f746f6b656e2f815250336000806101000a81548173ffffffffffffffffffffffffffffffffffffffff021916908373ffffffffffffffffffffffffffffffffffffffff1602179055507ff0f9c33b864614739972fc8159d0af6ec212977f171035fa21c69e9349e0ac956000809054906101000a900473ffffffffffffffffffffffffffffffffffffffff16604051808273ffffffffffffffffffffffffffffffffffffffff1673ffffffffffffffffffffffffffffffffffffffff16815260200191505060405180910390a160008060146101000a81548160ff021916908315150217905550620001e06301ffc9a760e01b620002be60201b60201c565b620001f86380ac58cd60e01b620002be60201b60201c565b6200021063780e9d6360e01b620002be60201b60201c565b8260109080519060200190620002289291906200035e565b508160119080519060200190620002419291906200035e565b5080601290805190602001906200025a9291906200035e565b5062000273635b5e139f60e01b620002be60201b60201c565b50505080601560006101000a81548173ffffffffffffffffffffffffffffffffffffffff021916908373ffffffffffffffffffffffffffffffffffffffff160217905550506200040d565b63ffffffff60e01b817bffffffffffffffffffffffffffffffffffffffffffffffffffffffff19161415620002f257600080fd5b6001806000837bffffffffffffffffffffffffffffffffffffffffffffffffffffffff19167bffffffffffffffffffffffffffffffffffffffffffffffffffffffff1916815260200190815260200160002060006101000a81548160ff02191690831515021790555050565b828054600181600116156101000203166002900490600052602060002090601f016020900481019282601f10620003a157805160ff1916838001178555620003d2565b82800160010185558215620003d2579182015b82811115620003d1578251825591602001919060010190620003b4565b5b509050620003e19190620003e5565b5090565b6200040a91905b8082111562000406576000816000905550600101620003ec565b5090565b90565b613729806200041d6000396000f3fe608060405234801561001057600080fd5b506004361061018e5760003560e01c806374690502116100de578063c87b56dd11610097578063d547cfb711610071578063d547cfb714610f45578063e985e9c514610fc8578063f2fde38b14611044578063fea67016146110885761018e565b8063c87b56dd14610ab9578063c9831ab414610b60578063d3fc986414610e485761018e565b806374690502146107bc578063893d20e81461081457806395d89b411461085e578063a22cb465146108e1578063b88d4fde14610931578063bdc32be014610a365761018e565b806327dc297e1161014b57806342842e0e1161012557806342842e0e146106465780634f6ccce7146106b45780636352211e146106f657806370a08231146107645761018e565b806327dc297e146103c35780632f745c591461048857806338bbfa50146104ea5761018e565b806301ffc9a71461019357806306fdde03146101f8578063081812fc1461027b578063095ea7b3146102e957806318160ddd1461033757806323b872dd14610355575b600080fd5b6101de600480360360208110156101a957600080fd5b8101908080357bffffffffffffffffffffffffffffffffffffffffffffffffffffffff191690602001909291905050506110b8565b604051808215151515815260200191505060405180910390f35b610200611120565b6040518080602001828103825283818151815260200191508051906020019080838360005b83811015610240578082015181840152602081019050610225565b50505050905090810190601f16801561026d5780820380516001836020036101000a031916815260200191505b509250505060405180910390f35b6102a76004803603602081101561029157600080fd5b81019080803590602001909291905050506111c2565b604051808273ffffffffffffffffffffffffffffffffffffffff1673ffffffffffffffffffffffffffffffffffffffff16815260200191505060405180910390f35b610335600480360360408110156102ff57600080fd5b81019080803573ffffffffffffffffffffffffffffffffffffffff169060200190929190803590602001909291905050506111ff565b005b61033f611496565b6040518082815260200191505060405180910390f35b6103c16004803603606081101561036b57600080fd5b81019080803573ffffffffffffffffffffffffffffffffffffffff169060200190929190803573ffffffffffffffffffffffffffffffffffffffff169060200190929190803590602001909291905050506114a3565b005b610486600480360360408110156103d957600080fd5b81019080803590602001909291908035906020019064010000000081111561040057600080fd5b82018360208201111561041257600080fd5b8035906020019184600183028401116401000000008311171561043457600080fd5b91908080601f016020809104026020016040519081016040528093929190818152602001838380828437600081840152601f19601f8201169050808301925050505050505091929192905050506114c6565b005b6104d46004803603604081101561049e57600080fd5b81019080803573ffffffffffffffffffffffffffffffffffffffff16906020019092919080359060200190929190505050611509565b6040518082815260200191505060405180910390f35b6106446004803603606081101561050057600080fd5b81019080803590602001909291908035906020019064010000000081111561052757600080fd5b82018360208201111561053957600080fd5b8035906020019184600183028401116401000000008311171561055b57600080fd5b91908080601f016020809104026020016040519081016040528093929190818152602001838380828437600081840152601f19601f820116905080830192505050505050509192919290803590602001906401000000008111156105be57600080fd5b8201836020820111156105d057600080fd5b803590602001918460018302840111640100000000831117156105f257600080fd5b91908080601f016020809104026020016040519081016040528093929190818152602001838380828437600081840152601f19601f82011690508083019250505050505050919291929050505061157c565b005b6106b26004803603606081101561065c57600080fd5b81019080803573ffffffffffffffffffffffffffffffffffffffff169060200190929190803573ffffffffffffffffffffffffffffffffffffffff16906020019092919080359060200190929190505050611581565b005b6106e0600480360360208110156106ca57600080fd5b81019080803590602001909291905050506115a1565b6040518082815260200191505060405180910390f35b6107226004803603602081101561070c57600080fd5b81019080803590602001909291905050506115d5565b604051808273ffffffffffffffffffffffffffffffffffffffff1673ffffffffffffffffffffffffffffffffffffffff16815260200191505060405180910390f35b6107a66004803603602081101561077a57600080fd5b81019080803573ffffffffffffffffffffffffffffffffffffffff169060200190929190505050611612565b6040518082815260200191505060405180910390f35b610812600480360360608110156107d257600080fd5b81019080803573ffffffffffffffffffffffffffffffffffffffff1690602001909291908035906020019092919080359060200190929190505050611662565b005b61081c61175c565b604051808273ffffffffffffffffffffffffffffffffffffffff1673ffffffffffffffffffffffffffffffffffffffff16815260200191505060405180910390f35b610866611785565b6040518080602001828103825283818151815260200191508051906020019080838360005b838110156108a657808201518184015260208101905061088b565b50505050905090810190601f1680156108d35780820380516001836020036101000a031916815260200191505b509250505060405180910390f35b61092f600480360360408110156108f757600080fd5b81019080803573ffffffffffffffffffffffffffffffffffffffff169060200190929190803515159060200190929190505050611827565b005b610a346004803603608081101561094757600080fd5b81019080803573ffffffffffffffffffffffffffffffffffffffff169060200190929190803573ffffffffffffffffffffffffffffffffffffffff16906020019092919080359060200190929190803590602001906401000000008111156109ae57600080fd5b8201836020820111156109c057600080fd5b803590602001918460018302840111640100000000831117156109e257600080fd5b91908080601f016020809104026020016040519081016040528093929190818152602001838380828437600081840152601f19601f820116905080830192505050505050509192919290505050611961565b005b610a3e611987565b6040518080602001828103825283818151815260200191508051906020019080838360005b83811015610a7e578082015181840152602081019050610a63565b50505050905090810190601f168015610aab5780820380516001836020036101000a031916815260200191505b509250505060405180910390f35b610ae560048036036020811015610acf57600080fd5b8101908080359060200190929190505050611a29565b6040518080602001828103825283818151815260200191508051906020019080838360005b83811015610b25578082015181840152602081019050610b0a565b50505050905090810190601f168015610b525780820380516001836020036101000a031916815260200191505b509250505060405180910390f35b610e2e60048036036102c0811015610b7757600080fd5b81019080803573ffffffffffffffffffffffffffffffffffffffff1690602001909291908035906020019092919080604001906002806020026040519081016040528092919082600260200280828437600081840152601f19601f820116905080830192505050505050919291929080604001906002806020026040519081016040528092919082600260200280828437600081840152601f19601f82011690508083019250505050505091929192908060800190600280602002604051908101604052809291906000905b82821015610c97578382604002016002806020026040519081016040528092919082600260200280828437600081840152601f19601f82011690508083019250505050505081526020019060010190610c43565b50505050919291929080604001906002806020026040519081016040528092919082600260200280828437600081840152601f19601f820116905080830192505050505050919291929080604001906002806020026040519081016040528092919082600260200280828437600081840152601f19601f820116905080830192505050505050919291929080604001906002806020026040519081016040528092919082600260200280828437600081840152601f19601f820116905080830192505050505050919291929080604001906002806020026040519081016040528092919082600260200280828437600081840152601f19601f820116905080830192505050505050919291929080604001906002806020026040519081016040528092919082600260200280828437600081840152601f19601f820116905080830192505050505050919291929080604001906002806020026040519081016040528092919082600260200280828437600081840152601f19601f8201169050808301925050505050509192919290505050611af0565b604051808215151515815260200191505060405180910390f35b610f2b60048036036060811015610e5e57600080fd5b81019080803573ffffffffffffffffffffffffffffffffffffffff1690602001909291908035906020019092919080359060200190640100000000811115610ea557600080fd5b820183602082011115610eb757600080fd5b80359060200191846001830284011164010000000083111715610ed957600080fd5b91908080601f016020809104026020016040519081016040528093929190818152602001838380828437600081840152601f19601f82011690508083019250505050505050919291929050505061210a565b604051808215151515815260200191505060405180910390f35b610f4d6121ec565b6040518080602001828103825283818151815260200191508051906020019080838360005b83811015610f8d578082015181840152602081019050610f72565b50505050905090810190601f168015610fba5780820380516001836020036101000a031916815260200191505b509250505060405180910390f35b61102a60048036036040811015610fde57600080fd5b81019080803573ffffffffffffffffffffffffffffffffffffffff169060200190929190803573ffffffffffffffffffffffffffffffffffffffff16906020019092919050505061228e565b604051808215151515815260200191505060405180910390f35b6110866004803603602081101561105a57600080fd5b81019080803573ffffffffffffffffffffffffffffffffffffffff169060200190929190505050612322565b005b6110b66004803603602081101561109e57600080fd5b810190808035151590602001909291905050506124ab565b005b600060016000837bffffffffffffffffffffffffffffffffffffffffffffffffffffffff19167bffffffffffffffffffffffffffffffffffffffffffffffffffffffff1916815260200190815260200160002060009054906101000a900460ff169050919050565b606060108054600181600116156101000203166002900480601f0160208091040260200160405190810160405280929190818152602001828054600181600116156101000203166002900480156111b85780601f1061118d576101008083540402835291602001916111b8565b820191906000526020600020905b81548152906001019060200180831161119b57829003601f168201915b5050505050905090565b60006003600083815260200190815260200160002060009054906101000a900473ffffffffffffffffffffffffffffffffffffffff169050919050565b6002600082815260200190815260200160002060009054906101000a900473ffffffffffffffffffffffffffffffffffffffff1673ffffffffffffffffffffffffffffffffffffffff168273ffffffffffffffffffffffffffffffffffffffff1614156112b7576040517f08c379a000000000000000000000000000000000000000000000000000000000815260040180806020018281038252602d815260200180613670602d913960400191505060405180910390fd5b6002600082815260200190815260200160002060009054906101000a900473ffffffffffffffffffffffffffffffffffffffff1673ffffffffffffffffffffffffffffffffffffffff163373ffffffffffffffffffffffffffffffffffffffff16148061135d575061135c6002600083815260200190815260200160002060009054906101000a900473ffffffffffffffffffffffffffffffffffffffff163361228e565b5b6113b2576040517f08c379a000000000000000000000000000000000000000000000000000000000815260040180806020018281038252605881526020018061369d6058913960600191505060405180910390fd5b816003600083815260200190815260200160002060006101000a81548173ffffffffffffffffffffffffffffffffffffffff021916908373ffffffffffffffffffffffffffffffffffffffff160217905550808273ffffffffffffffffffffffffffffffffffffffff166002600084815260200190815260200160002060009054906101000a900473ffffffffffffffffffffffffffffffffffffffff1673ffffffffffffffffffffffffffffffffffffffff167f8c5be1e5ebec7d5bd14f71427d1e84f3dd0314c0f7b2291e5b200ac8c7c3b92560405160405180910390a45050565b6000600880549050905090565b6114ad338261258a565b6114b657600080fd5b6114c183838361261f565b505050565b611505828260006040519080825280601f01601f1916602001820160405280156114ff5781602001600182028038833980820191505090505b5061157c565b5050565b600061151483611612565b821061151f57600080fd5b600660008473ffffffffffffffffffffffffffffffffffffffff1673ffffffffffffffffffffffffffffffffffffffff168152602001908152602001600020828154811061156957fe5b9060005260206000200154905092915050565b505050565b61159c83838360405180602001604052806000815250611961565b505050565b60006115ab611496565b82106115b657600080fd5b600882815481106115c357fe5b90600052602060002001549050919050565b60006002600083815260200190815260200160002060009054906101000a900473ffffffffffffffffffffffffffffffffffffffff169050919050565b600061165b600460008473ffffffffffffffffffffffffffffffffffffffff1673ffffffffffffffffffffffffffffffffffffffff168152602001908152602001600020612643565b9050919050565b60405180604001604052808381526020018473ffffffffffffffffffffffffffffffffffffffff16815250601460008381526020019081526020016000206000820151816000015560208201518160010160006101000a81548173ffffffffffffffffffffffffffffffffffffffff021916908373ffffffffffffffffffffffffffffffffffffffff1602179055509050507f8f30b3183c661e59e711a4a8021d8ab675a66c73543c932fec8e610640205d5d83604051808273ffffffffffffffffffffffffffffffffffffffff1673ffffffffffffffffffffffffffffffffffffffff16815260200191505060405180910390a1505050565b60008060009054906101000a900473ffffffffffffffffffffffffffffffffffffffff16905090565b606060118054600181600116156101000203166002900480601f01602080910402602001604051908101604052809291908181526020018280546001816001161561010002031660029004801561181d5780601f106117f25761010080835404028352916020019161181d565b820191906000526020600020905b81548152906001019060200180831161180057829003601f168201915b5050505050905090565b3373ffffffffffffffffffffffffffffffffffffffff168273ffffffffffffffffffffffffffffffffffffffff16141561186057600080fd5b80600560003373ffffffffffffffffffffffffffffffffffffffff1673ffffffffffffffffffffffffffffffffffffffff16815260200190815260200160002060008473ffffffffffffffffffffffffffffffffffffffff1673ffffffffffffffffffffffffffffffffffffffff16815260200190815260200160002060006101000a81548160ff0219169083151502179055508173ffffffffffffffffffffffffffffffffffffffff163373ffffffffffffffffffffffffffffffffffffffff167f17307eab39ab6107e8899845ad3d59bd9653f200f220920489ca2b5937696c3183604051808215151515815260200191505060405180910390a35050565b61196c8484846114a3565b61197884848484612651565b61198157600080fd5b50505050565b606060128054600181600116156101000203166002900480601f016020809104026020016040519081016040528092919081815260200182805460018160011615610100020316600290048015611a1f5780601f106119f457610100808354040283529160200191611a1f565b820191906000526020600020905b815481529060010190602001808311611a0257829003601f168201915b5050505050905090565b6060611a348261283a565b611a3d57600080fd5b601360008381526020019081526020016000208054600181600116156101000203166002900480601f016020809104026020016040519081016040528092919081815260200182805460018160011615610100020316600290048015611ae45780601f10611ab957610100808354040283529160200191611ae4565b820191906000526020600020905b815481529060010190602001808311611ac757829003601f168201915b50505050509050919050565b6000601560009054906101000a900473ffffffffffffffffffffffffffffffffffffffff1673ffffffffffffffffffffffffffffffffffffffff1663fe01ff628b8b8b8b8b8b8b8b8b6040518a63ffffffff1660e01b8152600401808a600260200280838360005b83811015611b73578082015181840152602081019050611b58565b5050505090500189600260200280838360005b83811015611ba1578082015181840152602081019050611b86565b505050509050018860026000925b81841015611bf55782846020020151600260200280838360005b83811015611be4578082015181840152602081019050611bc9565b505050509050019260010192611baf565b9250505087600260200280838360005b83811015611c20578082015181840152602081019050611c05565b5050505090500186600260200280838360005b83811015611c4e578082015181840152602081019050611c33565b5050505090500185600260200280838360005b83811015611c7c578082015181840152602081019050611c61565b5050505090500184600260200280838360005b83811015611caa578082015181840152602081019050611c8f565b5050505090500183600260200280838360005b83811015611cd8578082015181840152602081019050611cbd565b5050505090500182600260200280838360005b83811015611d06578082015181840152602081019050611ceb565b505050509050019950505050505050505050602060405180830381600087803b158015611d3257600080fd5b505af1158015611d46573d6000803e3d6000fd5b505050506040513d6020811015611d5c57600080fd5b8101908080519060200190929190505050611ddf576040517f08c379a00000000000000000000000000000000000000000000000000000000081526004018080602001828103825260158152602001807f736f6c7574696f6e206973206e6f742076616c6964000000000000000000000081525060200191505060405180910390fd5b60008a8a8a8a8a8a8a8a8a604051602001808a600260200280838360005b83811015611e18578082015181840152602081019050611dfd565b5050505090500189600260200280838360005b83811015611e46578082015181840152602081019050611e2b565b505050509050018860026000925b81841015611e9a5782846020020151600260200280838360005b83811015611e89578082015181840152602081019050611e6e565b505050509050019260010192611e54565b9250505087600260200280838360005b83811015611ec5578082015181840152602081019050611eaa565b5050505090500186600260200280838360005b83811015611ef3578082015181840152602081019050611ed8565b5050505090500185600260200280838360005b83811015611f21578082015181840152602081019050611f06565b5050505090500184600260200280838360005b83811015611f4f578082015181840152602081019050611f34565b5050505090500183600260200280838360005b83811015611f7d578082015181840152602081019050611f62565b5050505090500182600260200280838360005b83811015611fab578082015181840152602081019050611f90565b505050509050019950505050505050505050604051602081830303815290604052805190602001209050600073ffffffffffffffffffffffffffffffffffffffff166014600083815260200190815260200160002060010160009054906101000a900473ffffffffffffffffffffffffffffffffffffffff1673ffffffffffffffffffffffffffffffffffffffff16146120ad576040517f08c379a000000000000000000000000000000000000000000000000000000000815260040180806020018281038252600f8152602001807f736f6c7574696f6e20657869737473000000000000000000000000000000000081525060200191505060405180910390fd5b6120b88d8d83611662565b6120f88d8d6040518060400160405280600381526020017f75726c000000000000000000000000000000000000000000000000000000000081525061210a565b9150509b9a5050505050505050505050565b60003373ffffffffffffffffffffffffffffffffffffffff166000809054906101000a900473ffffffffffffffffffffffffffffffffffffffff1673ffffffffffffffffffffffffffffffffffffffff16146121ce576040517f08c379a00000000000000000000000000000000000000000000000000000000081526004018080602001828103825260168152602001807f6e6f742074686520636f6e7472616374206f776e65720000000000000000000081525060200191505060405180910390fd5b6121d884846128ac565b6121e1836128cd565b600190509392505050565b606060128054600181600116156101000203166002900480601f0160208091040260200160405190810160405280929190818152602001828054600181600116156101000203166002900480156122845780601f1061225957610100808354040283529160200191612284565b820191906000526020600020905b81548152906001019060200180831161226757829003601f168201915b5050505050905090565b6000600560008473ffffffffffffffffffffffffffffffffffffffff1673ffffffffffffffffffffffffffffffffffffffff16815260200190815260200160002060008373ffffffffffffffffffffffffffffffffffffffff1673ffffffffffffffffffffffffffffffffffffffff16815260200190815260200160002060009054906101000a900460ff16905092915050565b3373ffffffffffffffffffffffffffffffffffffffff166000809054906101000a900473ffffffffffffffffffffffffffffffffffffffff1673ffffffffffffffffffffffffffffffffffffffff16146123e4576040517f08c379a00000000000000000000000000000000000000000000000000000000081526004018080602001828103825260168152602001807f6e6f742074686520636f6e7472616374206f776e65720000000000000000000081525060200191505060405180910390fd5b806000806101000a81548173ffffffffffffffffffffffffffffffffffffffff021916908373ffffffffffffffffffffffffffffffffffffffff1602179055507ff0f9c33b864614739972fc8159d0af6ec212977f171035fa21c69e9349e0ac956000809054906101000a900473ffffffffffffffffffffffffffffffffffffffff16604051808273ffffffffffffffffffffffffffffffffffffffff1673ffffffffffffffffffffffffffffffffffffffff16815260200191505060405180910390a150565b3373ffffffffffffffffffffffffffffffffffffffff166000809054906101000a900473ffffffffffffffffffffffffffffffffffffffff1673ffffffffffffffffffffffffffffffffffffffff161461256d576040517f08c379a00000000000000000000000000000000000000000000000000000000081526004018080602001828103825260168152602001807f6e6f742074686520636f6e7472616374206f776e65720000000000000000000081525060200191505060405180910390fd5b80600060146101000a81548160ff02191690831515021790555050565b600080612596836115d5565b90508073ffffffffffffffffffffffffffffffffffffffff168473ffffffffffffffffffffffffffffffffffffffff16148061260557508373ffffffffffffffffffffffffffffffffffffffff166125ed846111c2565b73ffffffffffffffffffffffffffffffffffffffff16145b806126165750612615818561228e565b5b91505092915050565b61262a8383836129b5565b6126348382612c4a565b61263e8282612de8565b505050565b600081600001549050919050565b60006126728473ffffffffffffffffffffffffffffffffffffffff16612eaf565b61267f5760019050612832565b60008473ffffffffffffffffffffffffffffffffffffffff1663150b7a02338887876040518563ffffffff1660e01b8152600401808573ffffffffffffffffffffffffffffffffffffffff1673ffffffffffffffffffffffffffffffffffffffff1681526020018473ffffffffffffffffffffffffffffffffffffffff1673ffffffffffffffffffffffffffffffffffffffff16815260200183815260200180602001828103825283818151815260200191508051906020019080838360005b8381101561275a57808201518184015260208101905061273f565b50505050905090810190601f1680156127875780820380516001836020036101000a031916815260200191505b5095505050505050602060405180830381600087803b1580156127a957600080fd5b505af11580156127bd573d6000803e3d6000fd5b505050506040513d60208110156127d357600080fd5b8101908080519060200190929190505050905063150b7a0260e01b7bffffffffffffffffffffffffffffffffffffffffffffffffffffffff1916817bffffffffffffffffffffffffffffffffffffffffffffffffffffffff1916149150505b949350505050565b6000806002600084815260200190815260200160002060009054906101000a900473ffffffffffffffffffffffffffffffffffffffff169050600073ffffffffffffffffffffffffffffffffffffffff168173ffffffffffffffffffffffffffffffffffffffff161415915050919050565b6128b68282612ec2565b6128c08282612de8565b6128c981613008565b5050565b6128d68161283a565b6128df57600080fd5b61298b60128054600181600116156101000203166002900480601f0160208091040260200160405190810160405280929190818152602001828054600181600116156101000203166002900480156129785780601f1061294d57610100808354040283529160200191612978565b820191906000526020600020905b81548152906001019060200180831161295b57829003601f168201915b505050505061298683613054565b613181565b6013600083815260200190815260200160002090805190602001906129b192919061359e565b5050565b6129be816115d5565b73ffffffffffffffffffffffffffffffffffffffff168373ffffffffffffffffffffffffffffffffffffffff1614612a5e576040517f08c379a00000000000000000000000000000000000000000000000000000000081526004018080602001828103825260208152602001807f6e6f7420746865206f776e6572206f662074686520676976656e20746f6b656e81525060200191505060405180910390fd5b600073ffffffffffffffffffffffffffffffffffffffff168273ffffffffffffffffffffffffffffffffffffffff161415612b01576040517f08c379a00000000000000000000000000000000000000000000000000000000081526004018080602001828103825260148152602001807f6e6f742076616c696420746f206164647265737300000000000000000000000081525060200191505060405180910390fd5b612b0a816131c5565b816002600083815260200190815260200160002060006101000a81548173ffffffffffffffffffffffffffffffffffffffff021916908373ffffffffffffffffffffffffffffffffffffffff160217905550612ba3600460008473ffffffffffffffffffffffffffffffffffffffff1673ffffffffffffffffffffffffffffffffffffffff168152602001908152602001600020613283565b612bea600460008573ffffffffffffffffffffffffffffffffffffffff1673ffffffffffffffffffffffffffffffffffffffff168152602001908152602001600020613299565b808273ffffffffffffffffffffffffffffffffffffffff168473ffffffffffffffffffffffffffffffffffffffff167fddf252ad1be2c89b69c2b068fc378daa952ba7f163c4a11628f55a4df523b3ef60405160405180910390a4505050565b6000612ca26001600660008673ffffffffffffffffffffffffffffffffffffffff1673ffffffffffffffffffffffffffffffffffffffff168152602001908152602001600020805490506132bc90919063ffffffff16565b9050600060076000848152602001908152602001600020549050818114612d8f576000600660008673ffffffffffffffffffffffffffffffffffffffff1673ffffffffffffffffffffffffffffffffffffffff1681526020019081526020016000208381548110612d0f57fe5b9060005260206000200154905080600660008773ffffffffffffffffffffffffffffffffffffffff1673ffffffffffffffffffffffffffffffffffffffff1681526020019081526020016000208381548110612d6757fe5b9060005260206000200181905550816007600083815260200190815260200160002081905550505b600660008573ffffffffffffffffffffffffffffffffffffffff1673ffffffffffffffffffffffffffffffffffffffff168152602001908152602001600020805480919060019003612de1919061361e565b5050505050565b600660008373ffffffffffffffffffffffffffffffffffffffff1673ffffffffffffffffffffffffffffffffffffffff168152602001908152602001600020805490506007600083815260200190815260200160002081905550600660008373ffffffffffffffffffffffffffffffffffffffff1673ffffffffffffffffffffffffffffffffffffffff1681526020019081526020016000208190806001815401808255809150509060018203906000526020600020016000909192909190915055505050565b600080823b905060008111915050919050565b600073ffffffffffffffffffffffffffffffffffffffff168273ffffffffffffffffffffffffffffffffffffffff161415612efc57600080fd5b612f058161283a565b15612f0f57600080fd5b816002600083815260200190815260200160002060006101000a81548173ffffffffffffffffffffffffffffffffffffffff021916908373ffffffffffffffffffffffffffffffffffffffff160217905550612fa8600460008473ffffffffffffffffffffffffffffffffffffffff1673ffffffffffffffffffffffffffffffffffffffff168152602001908152602001600020613283565b808273ffffffffffffffffffffffffffffffffffffffff16600073ffffffffffffffffffffffffffffffffffffffff167fddf252ad1be2c89b69c2b068fc378daa952ba7f163c4a11628f55a4df523b3ef60405160405180910390a45050565b6008805490506009600083815260200190815260200160002081905550600881908060018154018082558091505090600182039060005260206000200160009091929091909150555050565b6060600082141561309c576040518060400160405280600181526020017f3000000000000000000000000000000000000000000000000000000000000000815250905061317c565b600082905060005b600082146130c6578080600101915050600a82816130be57fe5b0491506130a4565b6060816040519080825280601f01601f1916602001820160405280156130fb5781602001600182028038833980820191505090505b50905060006001830390505b6000861461317457600a868161311957fe5b0660300160f81b8282806001900393508151811061313357fe5b60200101907effffffffffffffffffffffffffffffffffffffffffffffffffffffffffffff1916908160001a905350600a868161316c57fe5b049550613107565b819450505050505b919050565b60606131bd83836040518060200160405280600081525060405180602001604052806000815250604051806020016040528060008152506132dc565b905092915050565b600073ffffffffffffffffffffffffffffffffffffffff166003600083815260200190815260200160002060009054906101000a900473ffffffffffffffffffffffffffffffffffffffff1673ffffffffffffffffffffffffffffffffffffffff16146132805760006003600083815260200190815260200160002060006101000a81548173ffffffffffffffffffffffffffffffffffffffff021916908373ffffffffffffffffffffffffffffffffffffffff1602179055505b50565b6001816000016000828254019250508190555050565b6132b1600182600001546132bc90919063ffffffff16565b816000018190555050565b6000828211156132cb57600080fd5b600082840390508091505092915050565b6060808690506060869050606086905060608690506060869050606081518351855187518951010101016040519080825280601f01601f1916602001820160405280156133385781602001600182028038833980820191505090505b509050606081905060008090506000809050600090505b88518110156133bd5788818151811061336457fe5b602001015160f81c60f81b83838060010194508151811061338157fe5b60200101907effffffffffffffffffffffffffffffffffffffffffffffffffffffffffffff1916908160001a905350808060010191505061334f565b600090505b8751811015613430578781815181106133d757fe5b602001015160f81c60f81b8383806001019450815181106133f457fe5b60200101907effffffffffffffffffffffffffffffffffffffffffffffffffffffffffffff1916908160001a90535080806001019150506133c2565b600090505b86518110156134a35786818151811061344a57fe5b602001015160f81c60f81b83838060010194508151811061346757fe5b60200101907effffffffffffffffffffffffffffffffffffffffffffffffffffffffffffff1916908160001a9053508080600101915050613435565b600090505b8551811015613516578581815181106134bd57fe5b602001015160f81c60f81b8383806001019450815181106134da57fe5b60200101907effffffffffffffffffffffffffffffffffffffffffffffffffffffffffffff1916908160001a90535080806001019150506134a8565b600090505b84518110156135895784818151811061353057fe5b602001015160f81c60f81b83838060010194508151811061354d57fe5b60200101907effffffffffffffffffffffffffffffffffffffffffffffffffffffffffffff1916908160001a905350808060010191505061351b565b82995050505050505050505095945050505050565b828054600181600116156101000203166002900490600052602060002090601f016020900481019282601f106135df57805160ff191683800117855561360d565b8280016001018555821561360d579182015b8281111561360c5782518255916020019190600101906135f1565b5b50905061361a919061364a565b5090565b81548183558181111561364557818360005260206000209182019101613644919061364a565b5b505050565b61366c91905b80821115613668576000816000905550600101613650565b5090565b9056fe74686520676976656e206164647265737320697320746865206f776e6572206f662074686520746f6b656e4964726571756972657320746865206d73672073656e64657220746f20626520746865206f776e6572206f662074686520636f6e7472616374206f72206973417070726f766564466f72416c6c282920746f2062652074727565a265627a7a72315820c4e546c0d9817e6b5d56a5dff0f3ebe2a8eb16f2035cd518d734f278b6b283f064736f6c63430005110032",
  "source": "pragma solidity ^0.5.2;\n\n// TODO define a contract call to the zokrates generated solidity contract <Verifier> or <renamedVerifier>\n\nimport \"./verifier.sol\";\nimport \"./ERC721Mintable.sol\";\n\n\n// TODO define another contract named SolnSquareVerifier that inherits from your ERC721Mintable class\n\ncontract SolnSquareVerifier is meshalContract {\n// TODO define a solutions struct that can hold an index & an address\nstruct solution {\n     uint256 Id;\n    address Address;\n\n}\n// TODO define an array of the above struct\n\n // TODO define a mapping to store unique solutions submitted\nmapping(bytes32 => solution) private solutions;\n// TODO Create an event to emit when a solution is added\n    event solutionWasAdded(address solution);\n// TODO Create a function to add the solutions to the array and emit the event\n\nfunction addSolution( address Address, uint256 Id, bytes32 solutionHash) public {\n    \n         solutions[solutionHash] = solution({\n                                        Id: Id,\n                                        Address: Address\n                                });\n         emit solutionWasAdded(Address);\n \n    }\n Verifier contractVerifier;\n    constructor\n    (\n        address contractVerifierAddress\n    )\n    public\n    {\n         contractVerifier = Verifier(contractVerifierAddress);\n    }\n// TODO Create a function to mint new NFT only after the solution has been verified\n//  - make sure the solution is unique (has not been used before)\n//  - make sure you handle metadata as well as tokenSuplly\n\n    function mintNewNFT(address Address, uint256 Id,\n        \n            uint[2] memory a,\n            uint[2] memory a_p,\n            uint[2][2] memory b,\n            uint[2] memory b_p,\n            uint[2] memory c,\n            uint[2] memory c_p,\n            uint[2] memory h,\n            uint[2] memory k,\n            uint[2] memory input\n        ) public returns (bool) {\n         \n         require(contractVerifier.verifyTx(a, a_p, b, b_p, c, c_p, h, k, input), \"solution is not valid\");\n\n        // require(solutions[Address].Address != Address, \"solution exists\");\n\n        //hash submitted solution solution \n        bytes32 solutionHash = keccak256(abi.encodePacked(a, a_p, b, b_p, c, c_p, h, k, input));\n        require(solutions[solutionHash].Address == address(0), \"solution exists\");\n        addSolution( Address, Id,solutionHash);\n        return mint(Address, Id, \"url\");\n    }\n  \n\n}\n\n\n\n\n\n\n\n\n\n\n\n\n\n\n\n\n\n\n\n\n\n\n\n\n\n\n\n\n\n\n\n\n\n\n\n\n\n",
  "sourcePath": "C:\\Users\\sivag\\Blockchain-Capstone\\eth-contracts\\contracts\\SolnSquareVerifier.sol",
  "compiler": {
    "name": "solc",
    "version": "0.5.17+commit.d19bba13.Emscripten.clang"
  },
  "schemaVersion": "3.4.6",
  "updatedAt": "2022-05-07T12:16:45.548Z",
  "networkType": "ethereum",
  "devdoc": {
    "methods": {
      "isApprovedForAll(address,address)": {
        "details": "Tells whether an operator is approved by a given owner",
        "params": {
          "operator": "operator address which you want to query the approval of",
          "owner": "owner address which you want to query the approval of"
        },
        "return": "bool whether the given operator is approved by the given owner"
      },
      "setApprovalForAll(address,bool)": {
        "details": "Sets or unsets the approval of a given operator An operator is allowed to transfer all tokens of the sender on their behalf",
        "params": {
          "approved": "representing the status of the approval to be set",
          "to": "operator address to set the approval"
        }
      },
      "supportsInterface(bytes4)": {
        "details": "implement supportsInterface(bytes4) using a lookup table"
      },
      "tokenByIndex(uint256)": {
        "details": "Gets the token ID at a given index of all the tokens in this contract Reverts if the index is greater or equal to the total number of tokens",
        "params": {
          "index": "uint256 representing the index to be accessed of the tokens list"
        },
        "return": "uint256 token ID at the given index of the tokens list"
      },
      "tokenOfOwnerByIndex(address,uint256)": {
        "details": "Gets the token ID at a given index of the tokens list of the requested owner",
        "params": {
          "index": "uint256 representing the index to be accessed of the requested tokens list",
          "owner": "address owning the tokens list to be accessed"
        },
        "return": "uint256 token ID at the given index of the tokens list owned by the requested address"
      },
      "totalSupply()": {
        "details": "Gets the total amount of tokens stored by the contract",
        "return": "uint256 representing the total amount of tokens"
      }
    }
  },
  "userdoc": {
    "methods": {}
  }
}